:100000000C9474000C9495000C9495000C9495003D
:100010000C9495000C9495000C9495000C9495000C
:100020000C9495000C9495000C9495000C949500FC
:100030000C9495000C9495000C9495000C949500EC
:100040000C9495000C9495000C9495000C949500DC
:100050000C9495000C9495000C9495000C949500CC
:100060000C9495000C9495000C9495000C949500BC
:100070000C9495000C9495000C9495000C949500AC
:100080000C9495000C9495000C9495000C9495009C
:100090000C9495000C9495000C9495000C9495008C
:1000A0000C9495000C9495000C9495000C9495007C
:1000B0000C9495000C9495000C9495000C9495006C
:1000C0000C9495000C9495000C9495000C9495005C
:1000D0000C9495000C9495000C9495000C9495004C
:1000E0000C9495000C94650111241FBECFEFD1E252
:1000F000DEBFCDBF00E00CBF12E0A0E0B2E0E8E957
:10010000FBE000E00BBF02C007900D92A039B107E1
:10011000D9F722E0A0E9B2E001C01D92AA39B207E6
:10012000E1F70E94C6010C94CA050C940000AF923E
:10013000BF92CF92DF92EF92FF920F931F93CF93D4
:10014000DF936C0163E070E043E084E0E82EF12C83
:1001500020E030E0A12CB12CE1E0F0E0CF010E2C4A
:1001600001C0880F0A94EAF7809582B98FEA94E07B
:100170000197F1F700C0000090B19F709095DB01EE
:1001800013978F0102C0000F111FAA95E2F7592F94
:10019000517090FF02C0A02AB12AA0919002B091A4
:1001A00091020A231B2381E0012B09F480E05817F8
:1001B00059F08601020F131F8DE7840F880F852BDE
:1001C000E80188832F5F3F4F8B0102501109EF0137
:1001D00002C0CC0FDD1F0A95E2F78E0151E091FDC0
:1001E00071C050E00A231B2381E0012B09F480E059
:1001F000581759F08601020F131F8EE7840F880FDE
:10020000852BE80188832F5F3F4F8B010150110937
:10021000EF0102C0CC0FDD1F0A95E2F78E0151E01D
:1002200092FD4DC050E00A231B2381E0012B09F40D
:1002300080E0581759F08601020F131F8FE7840FD3
:10024000880F852BE80188832F5F3F4F8F01062E93
:1002500002C0000F111F0A94E2F781E093FD2CC049
:1002600080E0A023B12391E0AB2B09F490E0891743
:1002700049F0D601A20FB31F942F990F892B8C93AD
:100280002F5F3F4FDFEFED1AFD0A4C5F4F776C5F3A
:100290007F4F433109F062CFB0929102A092900259
:1002A000822FDF91CF911F910F91FF90EF90DF9000
:1002B000CF90BF90AF900895A02AB12AD2CFAC2A98
:1002C000BD2AB1CFAC2ABD2A8DCF8A3049F090919A
:1002D000C00095FFFCCF8093C60080E090E00895B9
:1002E0009091C00095FFFCCF9DE09093C600EFCFAA
:1002F0009093C5008093C40086E08093C20088E993
:100300008093C10008959091C00095FFFCCF809329
:10031000C60008958091C00087FFFCCF8091C60081
:1003200008958091C000881F8827881F0895FC01C8
:100330002081222351F031969091C00095FFFCCF8F
:100340002093C60021912111F7CF089580E092E01B
:1003500090939502809394021092C50082E380935B
:10036000C40086E08093C20088E98093C1000895AC
:10037000892B49F081EA93E5909399028093980242
:100380008FEF9FEF089580E090E00895CF93DF9383
:10039000CDB7DEB7E0970FB6F894DEBF0FBECDBF86
:1003A0000E94A60180EF81B98FE082B9A12CB12C07
:1003B0009E012F5D3F4F690188248394912C9CE519
:1003C000692E92E0792E2CE3422E22E0522E8CE10F
:1003D00092E00E94B8013FEFA31AB30A43E050E055
:1003E00023E004E010E080E090E0E0E0F0E0B40121
:1003F000002E01C0660F0A94EAF7609562B9AFEA71
:10040000B4E01197F1F700C0000030B13F703095B3
:10041000BA0163507109D40102C0AA0FBB1F6A95CB
:10042000E2F7632F6170F62E30FF02C0EA2BFB2B40
:100430006091900270919102A623B723EE24E39479
:10044000AB2B09F4E12CFE1461F0D601A80FB91F03
:100450000F2EFDE7EF2EF02DE20EEE0CFE28FC92A3
:100460000196DA011297740102C0EE0CFF1CAA95E6
:10047000E2F7D701FF24F39431FDBBC0F12CA62392
:10048000B723EE24E394AB2B09F4E12CFE1461F0C6
:10049000D601A80FB91F0F2EFEE7EF2EF02DE20EAA
:1004A000EE0CFE28FC920196DA011197740102C04D
:1004B000EE0CFF1CAA95E2F7D701FF24F39432FD5E
:1004C00095C0F12CA623B723EE24E394AB2B09F4BB
:1004D000E12CFE1461F0D601A80FB91F0F2EFFE723
:1004E000EF2EF02DE20EEE0CFE28FC920196D401C8
:1004F000042E02C0AA0FBB1F0A94E2F7FF24F39454
:1005000033FD71C0F12C6A237B2331E0672B09F4A2
:1005100030E0F31641F0D601A80FB91F322F330F88
:10052000F32AFC9201960F5F1F4F2C5F2F774C5FD1
:100530005F4F233109F05BCFF0939102E09390027B
:10054000882309F444CF8150E82EF12C2FEFE21AD2
:10055000F20AEC0CFD1C86011CC08D919C9195014A
:10056000281B390BC9019F932F93E25FFD4F8181B7
:100570008F9380818F937F926F920E94FC020F90E5
:100580000F900F900F900F900F90E016F10609F466
:100590001ECFF801EC19FD09D8018D918D01EC0DEC
:1005A000FD1DE081E695F0E0EE0FFF1FA1E0B0E059
:1005B000AC0FBD1FAE0FBF1F80FFCFCFAD92BC925F
:1005C000BF92AF92E25FFD4F81818F9380818F93C5
:1005D0005F924F920E94FC020F900F900F900F902D
:1005E0000F900F90D2CFEA2BFB2B8DCFEA2BFB2B5A
:1005F00069CFEA2BFB2B43CFCF93DF93CDB7DEB789
:10060000AE014A5F5F4FFA0161917191AF01809134
:100610009402909195020E941003DF91CF9108956A
:100620002F923F924F925F926F927F928F929F9202
:10063000AF92BF92CF92DF92EF92FF920F931F93F0
:10064000CF93DF93CDB7DEB72B970FB6F894DEBF0D
:100650000FBECDBF6C017B018A01FC01178216829F
:10066000838181FFCCC1CE0101963C01F6019381CB
:10067000F70193FD859193FF81917F01882309F410
:10068000BAC1853239F493FD859193FF81917F0141
:10069000853229F4B60190E00E943005E7CF912C15
:1006A000212C312CFFE1F315D8F08B3279F038F49E
:1006B000803279F08332A1F4232D20611DC08D3268
:1006C00061F0803369F4232D216016C0832D826090
:1006D000382EE32DE4603E2E2AC0F32DF8601DC0B5
:1006E00037FC2DC020ED280F2A3040F08E32B9F4AF
:1006F00036FC81C1232D2064322E19C036FE06C07F
:100700008AE0989E200D1124922E11C0EAE02E9EC0
:10071000200D1124222EF32DF0623F2E08C08C36BE
:1007200021F4832D8068382E02C0883641F4F70109
:1007300093FD859193FF81917F018111B3CF982F14
:100740009F7D9554933028F40C5F1F4F9FE399834E
:100750000DC0833631F0833771F0833509F059C00D
:1007600021C0F801808189830E5F1F4F8824839404
:10077000912C530113C02801F2E04F0E511CF801D7
:10078000A080B18036FE03C0692D70E002C06FEF1B
:100790007FEFC5010E9425054C018201F32DFF77F3
:1007A0003F2E16C0280122E0420E511CF801A08005
:1007B000B18036FE03C0692D70E002C06FEF7FEF9D
:1007C000C5010E941A054C01F32DF0683F2E8201ED
:1007D00033FC1BC0822D90E088169906B0F4B60158
:1007E00080E290E00E9430052A94F4CFF50137FCB6
:1007F000859137FE81915F01B60190E00E9430053E
:1008000021102A9421E0821A91088114910471F731
:10081000E8C0843611F0893641F5F80137FE07C08B
:1008200060817181828193810C5F1F4F08C060815C
:100830007181072E000C880B990B0E5F1F4FF32D53
:10084000FF763F2E97FF09C0909580957095619532
:100850007F4F8F4F9F4FF0683F2E2AE030E0A3017B
:100860000E946C05882E861845C0853731F4232DEB
:100870002F7EB22E2AE030E025C0932D997FB92E2D
:100880008F36C1F018F4883579F0B5C0803719F08B
:10089000883721F0B0C0E92FE061BE2EB4FE0DC054
:1008A000FB2DF460BF2E09C034FE0AC0292F26603C
:1008B000B22E06C028E030E005C020E130E002C0E2
:1008C00020E132E0F801B7FE07C0608171818281CA
:1008D00093810C5F1F4F06C06081718180E090E0C2
:1008E0000E5F1F4FA3010E946C05882E8618FB2DFA
:1008F000FF773F2E36FE0DC0232D2E7FA22E8914AA
:1009000058F434FE0BC032FC09C0832D8E7EA82E15
:1009100005C0B82CA32C03C0B82C01C0B92CA4FE70
:100920000FC0FE01E80DF11D8081803321F49A2D66
:10093000997EA92E09C0A2FE06C0B394B39404C048
:100940008A2D867809F0B394A3FC11C0A0FE06C0DE
:10095000B21488F4280C922C9B180EC0B21460F4C8
:10096000B60180E290E00E943005B394F7CFB21454
:1009700018F42B1802C0982C212CA4FE10C0B6012C
:1009800080E390E00E943005A2FE17C0A1FC03C0E6
:1009900088E790E002C088E590E0B6010CC08A2D9F
:1009A000867859F0A1FE02C08BE201C080E2A7FC6C
:1009B0008DE2B60190E00E943005891438F4B6014A
:1009C00080E390E00E9430059A94F7CF8A94F30177
:1009D000E80DF11D8081B60190E00E943005811084
:1009E000F5CF222009F442CEB60180E290E00E94C9
:1009F00030052A94F6CFF6018681978102C08FEFE9
:100A00009FEF2B960FB6F894DEBF0FBECDBFDF91E0
:100A1000CF911F910F91FF90EF90DF90CF90BF90FB
:100A2000AF909F908F907F906F905F904F903F908E
:100A30002F900895FC010590615070400110D8F787
:100A4000809590958E0F9F1F0895FC016150704016
:100A500001900110D8F7809590958E0F9F1F0895F3
:100A60000F931F93CF93DF93FB01238121FD03C0DD
:100A70008FEF9FEF2CC022FF16C046815781248143
:100A800035814217530744F4A081B1819D012F5F46
:100A90003F4F318320838C93268137812F5F3F4FD7
:100AA0003783268314C08B01EC01FB010084F185A0
:100AB000E02D1995892BE1F6D80116968D919C9120
:100AC0001797019617969C938E931697CE01DF91F8
:100AD000CF911F910F910895FA01AA27283051F163
:100AE000203181F1E8946F936E7F6E5F7F4F8F4F5F
:100AF0009F4FAF4FB1E03ED0B4E03CD0670F781FBE
:100B0000891F9A1FA11D680F791F8A1F911DA11DA2
:100B10006A0F711D811D911DA11D20D009F46894DB
:100B20003F912AE0269F11243019305D3193DEF683
:100B3000CF010895462F4770405D4193B3E00FD039
:100B4000C9F7F6CF462F4F70405D4A3318F0495D24
:100B500031FD4052419302D0A9F7EACFB4E0A69507
:100B60009795879577956795BA95C9F70097610529
:100B7000710508959B01AC010A2E0694579547957F
:100B800037952795BA95C9F7620F731F841F951F74
:080B9000A01D0895F894FFCFA9
:100B9800000000020000000065010000000078026B
:100BA8007D028002830286028A028D026573706567
:100BB800616B202D2D7374646F75742027746573B1
:100BC8007427207C207061706C617900696E697A85
:100BD800696F206E6F74612025732020616C20740A
:100BE800656D706F203D202564200A006475726170
:100BF80074612064656C6C61206E6F74612025736C
:100C0800203A202564200A00444F4F4F00524500E7
:100C18004D4900464100534F4C004C410053490098
:00000001FF
